S01700004472696C6C436F6E74726F6C6C65722E73726563F2
S11300000C9463000C948B000C948B000C948B0068
S11300100C948B000C948B000C948B000C948B0030
S11300200C948B000C948B000C948B000C948B0020
S11300300C948B000C948B000C948B000C948B0010
S11300400C9434030C948B000C9433050C946705C6
S11300500C948B000C948B000C948B000C948B00F0
S11300600C948B000C948B000000000024002700EB
S11300702A0000000000250028002B0000000000DA
S113008023002600290004040404040404040202D6
S11300900202020203030303030301020408102003
S11300A0408001020408102001020408102000000E
S11300B00007000201000003040600000000000025
S11300C000000603CD0611241FBECFEFD8E0DEBF2B
S11300D0CDBF11E0A0E0B1E0EAE1F2E102C0059099
S11300E00D92A234B107D9F722E0A2E4B1E001C035
S11300F01D92AC31B207E1F710E0C6ECD0E004C0C9
S11301002297FE010E940709C23CD107C9F70E9449
S1130110C7020C940B090C940000683038F42BE2ED
S113012030E0FC01318320836283089548EF460F59
S1130130463038F425E230E0FC01318320834283E9
S113014008956E50663030F428E230E0FC013183CB
S1130150208362830895DC01ED91FC911197429113
S113016021E030E0B90112960C9002C0660F771FAF
S11301700A94E2F7CB01842B80830895CF93DF9315
S1130180EC010E94AB00E881F981408121E030E07C
S1130190C9010A8002C0880F991F0A94E2F7842BD0
S11301A08083DF91CF910895CF93DF93EC010E9478
S11301B0AB00E881F981408121E030E0C9010A8087
S11301C002C0880F991F0A94E2F7809584238083E4
S11301D0DF91CF910895CF93DF93EC010E94AB00A0
S11301E0E881F981408121E030E0C9010A8002C040
S11301F0880F991F0A94E2F784278083DF91CF91B7
S11302000895FC01A081B1814E9181E090E09C01B0
S1130210028002C0220F331F0A94E2F720952423A0
S11302202C93A081B1812C91028002C0880F991F68
S11302300A94E2F7822B8C930895FC01A081B1818A
S113024012978C9190E0028002C0959587950A944C
S1130250E2F7817008950E948D00089583E691E08D
S11302600E94EB0081E090914801911180E080931D
S11302704801882339F089E691E00E94EB0081E08F
S113028080930101089589E691E00E94BE0086E60C
S113029091E00E94D40060E08BE00E94DF04609152
S11302A0460170E08AE00E944004089589E691E0E6
S11302B00E94D40086E691E00E94BE0060E08AE0DD
S11302C00E94DF046091460170E08BE00E944004CC
S11302D0089581E090914701911180E08093470156
S11302E081E0809301010895AF92BF92CF92DF9293
S11302F0EF92FF920F931F93CF938DE591E00E94AD
S11303001D01811127C00E947C0300914D011091B1
S11303104E0120914F0130915001DC01CB01801B33
S1130320910BA20BB30B893C9105A105B10590F08B
S11303300E942E018DE591E00E941D018823D1F3D6
S11303400E947C0360934D0170934E0180934F0192
S11303509093500180914801882309F4F6C08AE5FE
S113036091E00E941D01811127C00E947C0300912D
S1130370490110914A0120914B0130914C01DC015B
S1130380CB01801B910BA20BB30B893C9105A105FA
S1130390B10590F00E9469018AE591E00E941D0177
S11303A08823D1F30E947C036093490170934A012E
S11303B080934B0190934C0181E591E00E94BE0033
S11303C080910101882309F455C08EE00E941E0427
S11303D0BC01882777FD8095982F1F921F921F924A
S11303E02FEF2F93A12CB12C6501EE24EA9413E096
S11303F0F12E00E010E020E030E0A9010E94510855
S1130400C62F0F900F900F900F90809100018C17C2
S113041058F50E947C030091420110914301209100
S1130420440130914501DC01CB01801B910BA20BEF
S1130430B30B85369105A105B10590F080910001BB
S1130440865F80930001809346010E947C03609341
S113045042017093430180934401909345012BC062
S1130460809100018C1738F11092010182E380938E
S1130470000121C08EE00E941E04BC01882777FD84
S11304808095982F1F921F921F922FEF2F93A12CCC
S1130490B12C6501EE24EA9413E0F12E00E010E0A3
S11304A020E030E0A9010E945108609346010F90BA
S11304B00F900F900F9080914701811103C00E940B
S11304C0430102C00E9456018FE00E941E044AE0CC
S11304D050E0BC018DEF91E00E941F088FE00E9464
S11304E01E040E974CF163E071E08DEF91E00E94E1
S11304F03E0860E971E080E090E00E948A038FE0AA
S11305000E941E040E97CCF180E691E00E94BE008A
S113051068E171E08DEF91E00E943E0881E591E091
S11305200E94D40060ED77E080E090E00E948A03AE
S113053081E08093010121C081E591E00E94BE0029
S113054080E691E00E94D40018C081E591E00E9409
S1130550D40080E691E00E94D40086E691E00E94F7
S1130560D40089E691E00E94D40060E08AE00E9411
S1130570DF0460E08BE00E94DF04CF911F910F91B4
S1130580FF90EF90DF90CF90BF90AF9008950E94BE
S1130590E30340E051EE60E070E08DEF91E00E94F3
S11305A0A20560E08EE00E94A00460E08FE00E945B
S11305B0A00481E591E00E94D40087E591E00E94C7
S11305C0D40084E591E00E94D40083E691E00E9487
S11305D0D40080E691E00E94D40086E691E00E9477
S11305E0D40089E691E00E94D4008DE591E00E9458
S11305F001018AE591E00E9401016DE171E08DEF56
S113060091E00E943E080E947401FDCF65E089E6F6
S113061091E00E942B0164E086E691E00E942B01A8
S113062063E083E691E00E942B0162E080E691E0C2
S11306300E942B0168E08DE591E00E942B0169E0A6
S11306408AE591E00E942B016AE087E591E00E942F
S11306502B016BE084E591E00E942B016CE081E5C5
S113066091E00E942B0108951F920F920FB60F92F2
S113067011242F933F938F939F93AF93BF938091B4
S1130680700190917101A0917201B0917301309148
S113069074010196A11DB11D232F2D5F2D3720F06C
S11306A02D570196A11DB11D2093740180937001F3
S11306B090937101A0937201B093730180916C01C6
S11306C090916D01A0916E01B0916F010196A11DF1
S11306D0B11D80936C0190936D01A0936E01B09352
S11306E06F01BF91AF919F918F913F912F910F9087
S11306F00FBE0F901F9018958FB7F894209170013A
S11307003091710140917201509173018FBFB90111
S1130710CA0108959B01AC017FB7F89480916C01E4
S113072090916D01A0916E01B0916F0166B5A89B87
S113073005C06F3F19F00196A11DB11D7FBFBA2FEF
S1130740A92F982F8827860F911DA11DB11D62E046
S1130750880F991FAA1FBB1F6A95D1F7BC012DC032
S1130760FFB7F89480916C0190916D01A0916E0196
S1130770B0916F01E6B5A89B05C0EF3F19F0019653
S1130780A11DB11DFFBFBA2FA92F982F88278E0F47
S1130790911DA11DB11DE2E0880F991FAA1FBB1F67
S11307A0EA95D1F7861B970B885E9340C8F22150D7
S11307B030404040504068517C4F2115310541057F
S11307C0510571F60895789484B5826084BD84B52A
S11307D0816084BD85B5826085BD85B5816085BD38
S11307E0EEE6F0E0808181608083E1E8F0E0108251
S11307F0808182608083808181608083E0E8F0E092
S1130800808181608083E1EBF0E08081846080837B
S1130810E0EBF0E0808181608083EAE7F0E08081B2
S11308208460808380818260808380818160808312
S11308308081806880831092C1000895982F8E3043
S113084008F09E509770809102018295880F880F5E
S1130850807C892B80937C0080917A0080648093D3
S11308607A0080917A0086FDFCCF20917800409137
S11308707900942F80E030E0282B392BC9010895AA
S11308801F93CF93DF93182FEB0161E00E94A00424
S1130890209709F44AC0CF3FD10509F449C0E12F9C
S11308A0F0E0E255FF4F84918330C1F0843028F4A6
S11308B0813051F08230B1F50CC0863019F18730A7
S11308C049F1843079F514C084B5806884BDC7BD0E
S11308D033C084B5806284BDC8BD2EC080918000C1
S11308E0806880938000D0938900C093880024C0DE
S11308F080918000806280938000D0938B00C093AD
S11309008A001AC08091B00080688093B000C093C0
S1130910B30012C08091B00080628093B000C09395
S1130920B4000AC0C038D1051CF4812F60E002C0B5
S1130930812F61E00E94DF04DF91CF911F91089520
S1130940CF93DF93482F50E0CA0186569F4FFC0196
S113095034914A575F4FFA018491882369F190E0FA
S1130960880F991FFC01E859FF4FA591B491FC0130
S1130970EE58FF4FC591D491662351F42FB7F894E4
S11309808C91932F909589238C93888189230BC014
S1130990623061F42FB7F8948C91932F909589234A
S11309A08C938881832B88832FBF06C09FB7F894CC
S11309B08C91832B8C939FBFDF91CF910895482F07
S11309C050E0CA0182559F4FFC012491CA0186560A
S11309D09F4FFC0194914A575F4FFA01349133239E
S11309E009F440C0222351F1233071F0243028F45B
S11309F02130A1F0223011F514C02630B1F0273097
S1130A00C1F02430D9F404C0809180008F7703C0F2
S1130A10809180008F7D8093800010C084B58F7793
S1130A2002C084B58F7D84BD09C08091B0008F77EA
S1130A3003C08091B0008F7D8093B000E32FF0E07D
S1130A40EE0FFF1FEE58FF4FA591B4912FB7F89406
S1130A50662321F48C919095892302C08C91892B73
S1130A608C932FBF08951F920F920FB60F921124EB
S1130A702F933F934F938F939F93EF93FF934091C3
S1130A80C6002091B5013091B6012F5F3F4F2F73FF
S1130A9030708091B7019091B8012817390759F047
S1130AA0E091B501F091B601EB58FE4F40833093CD
S1130AB0B6012093B501FF91EF919F918F914F91D2
S1130AC03F912F910F900FBE0F901F9018951F927A
S1130AD00F920FB60F9211242F933F938F939F93EE
S1130AE0EF93FF932091F9013091FA018091FB017A
S1130AF09091FC012817390731F48091C1008F7D52
S1130B008093C10014C0E091FB01F091FC01E75413
S1130B10FE4F20818091FB019091FC0101968F731F
S1130B2090709093FC018093FB012093C600FF9189
S1130B30EF919F918F913F912F910F900FBE0F9046
S1130B401F901895AF92BF92DF92EF92FF920F938E
S1130B501F93CF93DF93EC017A018B01DD244030A6
S1130B6081EE580780E0680780E0780711F0DD2403
S1130B70D39491E0A92EB12CEC89FD89DD2069F094
S1130B80C5010E8C02C0880F991F0A94E2F7808376
S1130B9060E079E08DE390E005C0108260E874E8DD
S1130BA08EE190E0A80197010E94AA0821503040EC
S1130BB040405040569547953795279580E1203021
S1130BC0380720F0DD2011F0DD24D6CFE889F9893B
S1130BD03083EA89FB892083EE89FF89408121E003
S1130BE030E0C9010A8C02C0880F991F0A94E2F709
S1130BF0482B4083EE89FF894081C9010B8C02C0D8
S1130C00880F991F0A94E2F7482B4083EE89FF89E5
S1130C104081C9010C8C02C0880F991F0A94E2F725
S1130C20482B4083EE89FF8980810D8C02C0220FFE
S1130C30331F0A94E2F7209528232083DF91CF9174
S1130C401F910F91FF90EF90DF90BF90AF900895A8
S1130C50DC011C96ED91FC911D97E05CFF4F219106
S1130C60319180819181281B390B2F733070C90118
S1130C700895DC011C96ED91FC911D97E05CFF4FFB
S1130C8020813181E054F040DF01AE5BBF4F8D9194
S1130C909C9111972817390719F42FEF3FEF07C0DC
S1130CA08D919C91E80FF91F8081282F30E0C901B4
S1130CB00895DC011C96ED91FC911D97E05CFF4FBB
S1130CC020813181E054F040DF01AE5BBF4F8D9154
S1130CD09C9111972817390719F42FEF3FEF10C093
S1130CE08D919C911197E80FF91F20818D919C9112
S1130CF0119701968F73907011969C938E9330E0A8
S1130D00C9010895FC0186859785DC01A05CBF4F6D
S1130D10FC01EE5BFF4F2D913C91119780819181F5
S1130D2028173907C1F70895CF93DF93EC01EE85B7
S1130D30FF85E05CFF4F20813181E054F0402F5F5C
S1130D403F4F2F733070DF01AE5BBF4F8D919C918D
S1130D50119728173907D1F3E05CFF4F8081918107
S1130D60E054F040E80FF91F6083EE85FF85E05CF6
S1130D70FF4F31832083EE89FF89208181E090E059
S1130D800D8C02C0880F991F0A94E2F7282B208348
S1130D9081E090E0DF91CF910895109200021092CB
S1130DA0FF0188EE93E0A0E0B0E08093010290930D
S1130DB00202A0930302B093040285E391E09093AE
S1130DC0FE018093FD0185E791E090930A028093F0
S1130DD0090289EB91E090930C0280930B0285EC5D
S1130DE090E090930E0280930D0284EC90E0909337
S1130DF0100280930F0280EC90E090931202809393
S1130E00110281EC90E0909314028093130286EC1B
S1130E1090E0909316028093150284E08093170269
S1130E2083E08093180287E08093190285E0809321
S1130E301A0281E080931B020895CF92DF92EF9211
S1130E40FF920F931F93CF93DF937C016B018A0171
S1130E50C0E0D0E00FC0D6016D916D01D701ED91D6
S1130E60FC910190F081E02DC7010995C80FD91FAD
S1130E70015010400115110571F7CE01DF91CF919A
S1130E801F910F91FF90EF90DF90CF900895EF9214
S1130E90FF920F931F938C01DC01ED91FC91019063
S1130EA0F081E02D6DE009957C01D801ED91FC9174
S1130EB00190F081E02DC8016AE009959C012E0D96
S1130EC03F1DC9011F910F91FF90EF900895CF939B
S1130ED0DF93DB010D900020E9F71197A61BB70BF8
S1130EE0EC01E881F9810280F381E02DAD010995DF
S1130EF0DF91CF9108954F925F927F928F929F924C
S1130F00AF92BF92CF92DF92EF92FF920F931F9313
S1130F10DF93CF93CDB7DEB7A1970FB6F894DEBFBA
S1130F200FBECDBF2C01742ECB01223008F42AE071
S1130F3019A231E2C32ED12CCC0EDD1E822E9924AF
S1130F40AA24BB24672D752FA50194010E94AA0829
S1130F5079018A01C801B701A50194010E949A0888
S1130F60472D461B0894C108D1084A3014F4405D4B
S1130F7001C0495CF6014083E114F1040105110547
S1130F8021F07E2C5F2DC801DDCFC201B6010E9485
S1130F906707A1960FB6F894DEBF0FBECDBFCF9101
S1130FA0DF911F910F91FF90EF90DF90CF90BF9052
S1130FB0AF909F908F907F905F904F900895CF92C5
S1130FC0DF92EF92FF920F931F93CF93DF93EC0185
S1130FD06A017B012115310541F4E881F981019011
S1130FE0F081E02D642F09951FC02A303105D1F41A
S1130FF077FF17C0E881F9810190F081E02D6DE25F
S113100009958C0144275527BA014C195D096E09CD
S11310107F09CE012AE00E947B079801280F391F1F
S113102004C02AE00E947B079C01C901DF91CF9193
S11310301F910F91FF90EF90DF90CF900895CF9282
S1131040DF92EF92FF920F931F936C017B019A0141
S11310500027F7FC0095102FB801A7010E94DF07B5
S11310608C01C6010E944707080F191FC8011F9170
S11310700F91FF90EF90DF90CF900895EF92FF9241
S11310800F931F937C010E9467078C01C7010E9484
S11310904707080F191FC8011F910F91FF90EF9088
S11310A008952F923F924F925F926F927F928F9208
S11310B09F92AF92BF92CF92DF92EF92FF920F93E3
S11310C01F93DF93CF93CDB7DEB73B014C011901DA
S11310D02A016D897E898F89988D6A197B098C090B
S11310E09D09621A730A840A950AA40193010E9455
S11310F09A08E218F30804091509A80197010E9447
S1131100CC082A0D3B1D4C1D5D1DB901CA01CF91B0
S1131110DF911F910F91FF90EF90DF90CF90BF90E0
S1131120AF909F908F907F906F905F904F903F9083
S11311302F900895DB018F939F930E94FA08BF912B
S1131140AF91A29F800D911DA39F900DB29F900D12
S113115011240895A1E21A2EAA1BBB1BFD010DC088
S1131160AA1FBB1FEE1FFF1FA217B307E407F50753
S113117020F0A21BB30BE40BF50B661F771F881F2F
S1131180991F1A9469F760957095809590959B01C5
S1131190AC01BD01CF010895052E97FB1EF4009408
S11311A00E94E30857FD07D00E94AA0807FC03D059
S11311B04EF40C94E30850954095309521953F4F9B
S11311C04F4F5F4F089590958095709561957F4F2F
S11311D08F4F9F4F0895A29FB001B39FC001A39F5B
S11311E0700D811D1124911DB29F700D811D11245C
S11311F0911D08950E94EB08A59F900DB49F900D3A
S1131200A49F800D911D11240895EE0FFF1F0590DA
S10D1210F491E02D0994F894FFCF47
S113121A3201014F76657243757272656E745F644A
S113122A657465637465640073746F700050726FDB
S113123A6772616D20496E697469616C697A656463
S113124A000000000094061D072806590639068284
S105125A060088
S9030000FC
