S01200006D796461635F386269742E737265632E
S11300000C94A1000C94C9000C94C9000C94C90070
S11300100C94C9000C94C9000C94C9000C94C90038
S11300200C94C9000C94C9000C94C9000C94C90028
S11300300C94C9000C94C9000C94C9000C94C90018
S11300400C940E040C94C9000C94B4050C94E805AB
S11300500C94C9000C94C9000C94C9000C94C900F8
S11300600C94C9000C94C900F5010A021F02340261
S113007049025E02730288029D02B202C702DC02D8
S1130080F10206031B0330034661696C6564207446
S11300906F20696E697469616C69736520493243C4
S11300A02077697468203430304B687A20636C6F31
S11300B0636B0D0A0049324320696E697469616C8F
S11300C069736564207375636365737366756C6CBB
S11300D0792077697468203430304B687A20636CF7
S11300E06F636B0D0A0000000000240027002A0043
S11300F000000000250028002B0000000000230061
S11301002600290004040404040404040202020274
S113011002020303030303030102040810204080C6
S11301200102040810200102040810200000000746
S113013000020100000304060000000000000000AB
S11301404E0711241FBECFEFD8E0DEBFCDBF11E0B4
S1130150A0E0B1E0E6E9F1E102C005900D92AA3316
S1130160B107D9F721E0AAE3B1E001C01D92AE3E88
S1130170B207E1F711E0C2E4D1E004C02297FE0126
S11301800E94AB08C034D107C9F70E9407040C943D
S1130190C9080C9400009B01AC0160E074E284EF98
S11301A090E00E946808DA01C9014097A109B109E9
S11301B0B695A795979587958F3F910509F040F4DB
S11301C01092B9008093B80024E02093BC000895F5
S11301D080E090E00895CF92DF92EF92FF920F9328
S11301E01F93CF93DF9384EA8093BC000E9456044C
S11301F060933A0170933B0180933C0190933D01DD
S1130200CCEBD0E01CC00E94560400913A0110913E
S11302103B0120913C0130913D016B017C01C01AEE
S1130220D10AE20AF30A6091000170910101CB0145
S1130230A0E0B0E08C159D05AE05BF0560F0888197
S113024088230CF72091B900287F81E090E02830C2
S113025021F080E002C082E090E0DF91CF911F9115
S11302600F91FF90EF90DF90CF90089584E98093F1
S1130270BC000895CF92DF92EF92FF920F931F93E9
S1130280CF93DF93ABEBB0E0ECEBF0E08C93908199
S113029093FDFCCF84E88093BC000E9456046093D5
S11302A03A0170933B0180933C0190933D01CCEB68
S11302B0D0E01CC00E94560400913A0110913B0109
S11302C020913C0130913D016B017C01C01AD10A9F
S11302D0E20AF30A6091000170910101CB01A0E0F0
S11302E0B0E08C159D05AE05BF0538F088818823E4
S11302F00CF78091B900887F01C082E0DF91CF9133
S11303001F910F91FF90EF90DF90CF900895880F89
S11303100E943A0108958093C600E0ECF0E08081E9
S113032085FFFDCFE0ECF0E080818062808308955A
S1130330CF93DF93EC01FE012491222351F0219607
S1130340FC0184910E948B01CE01FE0124912111B4
S1130350F6CFDF91CF91089540E051EE60E070E078
S11303608FEC91E00E94230660E080910A010E94D4
S1130370CE0481E00E94A90460E0809108010E94FB
S1130380CE0462E0809106010E94CE0462E0809176
S113039004010E94CE0462E0809102010E94CE0416
S11303A065E171E08FEC91E00E94FC0788B1806305
S11303B088B960E87AE186E090E00E94CB00892B5E
S11303C029F085EB90E00E949801089588E890E078
S11303D00E949801089590E08031910508F054C17D
S11303E0FC01EC5CFF4F0C94A90860E080911201C1
S11303F00E940D0560E0809110010E940D0560E0EF
S113040080910E010E940D0560E080910C010E9414
S11304100D05089561E0809112010E940D0560E0D0
S1130420809110010E940D0560E080910E010E94F0
S11304300D0560E080910C010E940D05089560E0B7
S1130440809112010E940D0561E0809110010E94CB
S11304500D0560E080910E010E940D0560E0809121
S11304600C010E940D05089561E0809112010E9423
S11304700D0561E0809110010E940D0560E08091FE
S11304800E010E940D0560E080910C010E940D0593
S1130490089560E0809112010E940D0560E0809152
S11304A010010E940D0561E080910E010E940D056E
S11304B060E080910C010E940D05089561E0809137
S11304C012010E940D0560E0809110010E940D054B
S11304D061E080910E010E940D0560E080910C01A5
S11304E00E940D05089560E0809112010E940D059F
S11304F061E0809110010E940D0561E080910E0180
S11305000E940D0560E080910C010E940D05089584
S113051061E0809112010E940D0561E0809110015B
S11305200E940D0561E080910E010E940D0560E0BE
S113053080910C010E940D05089560E080911201E4
S11305400E940D0560E0809110010E940D0560E09D
S113055080910E010E940D0561E080910C010E94C2
S11305600D05089561E0809112010E940D0560E07F
S1130570809110010E940D0560E080910E010E949F
S11305800D0561E080910C010E940D05089560E065
S1130590809112010E940D0561E0809110010E947A
S11305A00D0560E080910E010E940D0561E08091CF
S11305B00C010E940D05089561E0809112010E94D2
S11305C00D0561E0809110010E940D0560E08091AD
S11305D00E010E940D0561E080910C010E940D0541
S11305E0089560E0809112010E940D0560E0809101
S11305F010010E940D0561E080910E010E940D051D
S113060061E080910C010E940D05089561E08091E4
S113061012010E940D0560E0809110010E940D05F9
S113062061E080910E010E940D0561E080910C0152
S11306300E940D05089560E0809112010E940D054D
S113064061E0809110010E940D0561E080910E012E
S11306500E940D0561E080910C010E940D05089532
S113066061E0809112010E940D0561E0809110010A
S11306700E940D0561E080910E010E940D0561E06C
S113068080910C010E940D050895AF92BF92CF9204
S1130690DF92EF92FF920F931F93809108010E94C3
S11306A0AC04BC0180E090E01F921F921F922FE0E7
S11306B02F93A12CB12C6501EE24EA9413E0F12EC2
S11306C000E010E020E030E0A9010E940F08862F2E
S11306D00E94EB010F900F900F900F901F910F91BC
S11306E0FF90EF90DF90CF90BF90AF9008957F92EE
S11306F08F929F92AF92BF92CF92DF92EF92FF922E
S11307000F931F93CF93DF93C6E0D1E00F2EF8E051
S11307108F2EF1E09F2EF02D0F2EFFE07F2EF02D77
S113072021C0F40180810E94AC04BC0180E090E00F
S11307301F921F921F927F92A12CB12C6501EE246F
S1130740EA9413E0F12E00E010E020E030E0A9018B
S11307500E940F088FEC91E00E9415070F900F90F4
S11307600F900F9088810E946105892BD1F2DF914F
S1130770CF911F910F91FF90EF90DF90CF90BF909A
S1130780AF909F908F907F900895CF93DF930E94B6
S1130790EB0088E40E94870180E40E943A01C4E0EF
S11307A0D1E010C08FEC91E00E94A906892B31F0B2
S11307B08FEC91E00E94DA060E943A018AEF90E001
S11307C00E94640488810E946105892B59F30E9468
S11307D03601DF91CF910895809102010E94610555
S11307E0892B19F40E9445030895809104010E9405
S11307F06105892B19F40E94C503089580910601AF
S11308000E946105892B11F40E94770308950E94C8
S11308106E040E94AC010E94EC03FDCF1F920F9264
S11308200FB60F9211242F933F938F939F93AF93FF
S1130830BF938091420190914301A0914401B091F2
S11308404501309146010196A11DB11D232F2D5F55
S11308502D3720F02D570196A11DB11D209346017F
S11308608093420190934301A0934401B0934501C6
S113087080913E0190913F01A0914001B0914101CE
S11308800196A11DB11D80933E0190933F01A09359
S11308904001B0934101BF91AF919F918F913F91DE
S11308A02F910F900FBE0F901F9018958FB7F8944B
S11308B020914201309143014091440150914501FE
S11308C08FBFB901CA010895019739F0880F991FA4
S11308D0880F991F02970197F1F70895789484B5CA
S11308E0826084BD84B5816084BD85B5826085BD28
S11308F085B5816085BDEEE6F0E08081816080830E
S1130900E1E8F0E0108280818260808380818160F0
S11309108083E0E8F0E0808181608083E1EBF0E0B7
S1130920808184608083E0EBF0E08081816080835B
S1130930EAE7F0E080818460808380818260808344
S11309408081816080838081806880831092C1006F
S11309500895809314010895982F8E3008F09E50C6
S11309609770809114018295880F880F807C892B61
S113097080937C0080917A00806480937A008091D7
S11309807A0086FDFCCF2091780040917900942F65
S113099080E030E0282B392BC9010895CF93DF93F1
S11309A0482F50E0CA01885E9E4FFC0134914C5F91
S11309B05E4FFA018491882369F190E0880F991FB2
S11309C0FC01EA51FF4FA591B491FC01E051FF4FA6
S11309D0C591D491662351F42FB7F8948C91932F39
S11309E0909589238C93888189230BC0623061F4AC
S11309F02FB7F8948C91932F909589238C938881A9
S1130A00832B88832FBF06C09FB7F8948C91832BC8
S1130A108C939FBFDF91CF910895482F50E0CA0176
S1130A20845D9E4FFC012491CA01885E9E4FFC01A7
S1130A3094914C5F5E4FFA013491332309F440C022
S1130A40222351F1233071F0243028F42130A1F015
S1130A50223011F514C02630B1F02730C1F0243013
S1130A60D9F404C0809180008F7703C08091800006
S1130A708F7D8093800010C084B58F7702C084B5C9
S1130A808F7D84BD09C08091B0008F7703C08091B1
S1130A90B0008F7D8093B000E32FF0E0EE0FFF1FD6
S1130AA0E051FF4FA591B4912FB7F894662321F438
S1130AB08C919095892302C08C91892B8C932FBFA4
S1130AC00895682F70E0CB01845D9E4FFC01249152
S1130AD0CB01885E9E4FFC0144916C5F7E4FFB010D
S1130AE09491992319F420E030E03CC0222351F181
S1130AF0233071F0243028F42130A1F0223011F594
S1130B0014C02630B1F02730C1F02430D9F404C029
S1130B10809180008F7703C0809180008F7D8093C7
S1130B20800010C084B58F7702C084B58F7D84BDEA
S1130B3009C08091B0008F7703C08091B0008F7D91
S1130B408093B000892F90E0880F991F86509F4FA3
S1130B50FC01A591B4918C9120E030E0842311F044
S1130B6021E030E0C90108951F920F920FB60F9251
S1130B7011242F933F934F938F939F93EF93FF935E
S1130B804091C60020918701309188012F5F3F4F2B
S1130B902F7330708091890190918A012817390749
S1130BA059F0E0918701F0918801E95BFE4F4083A1
S1130BB03093880120938701FF91EF919F918F914A
S1130BC04F913F912F910F900FBE0F901F9018954A
S1130BD01F920F920FB60F9211242F933F938F936E
S1130BE09F93EF93FF932091CB013091CC0180919F
S1130BF0CD019091CE012817390731F48091C100BD
S1130C008F7D8093C10014C0E091CD01F091CE019D
S1130C10E557FE4F20818091CD019091CE01019640
S1130C208F7390709093CE018093CD012093C60072
S1130C30FF91EF919F918F913F912F910F900FBE54
S1130C400F901F901895AF92BF92DF92EF92FF9290
S1130C500F931F93CF93DF93EC017A018B01DD2473
S1130C60403081EE580780E0680780E0780711F093
S1130C70DD24D39491E0A92EB12CEC89FD89DD20EB
S1130C8069F0C5010E8C02C0880F991F0A94E2F71F
S1130C90808360E079E08DE390E005C0108260E835
S1130CA074E88EE190E0A80197010E946808215041
S1130CB0304040405040569547953795279580E100
S1130CC02030380720F0DD2011F0DD24D6CFE8896C
S1130CD0F9893083EA89FB892083EE89FF89408181
S1130CE021E030E0C9010A8C02C0880F991F0A94E0
S1130CF0E2F7482B4083EE89FF894081C9010B8CC0
S1130D0002C0880F991F0A94E2F7482B4083EE89AA
S1130D10FF894081C9010C8C02C0880F991F0A9475
S1130D20E2F7482B4083EE89FF8980810D8C02C055
S1130D30220F331F0A94E2F7209528232083DF91A2
S1130D40CF911F910F91FF90EF90DF90BF90AF90E4
S1130D500895DC011C96ED91FC911D97E05CFF4F1A
S1130D602191319180819181281B390B2F7330702F
S1130D70C9010895DC011C96ED91FC911D97E05C7E
S1130D80FF4F20813181E054F040DF01AE5BBF4F63
S1130D908D919C9111972817390719F42FEF3FEF84
S1130DA007C08D919C91E80FF91F8081282F30E0B6
S1130DB0C9010895DC011C96ED91FC911D97E05C3E
S1130DC0FF4F20813181E054F040DF01AE5BBF4F23
S1130DD08D919C9111972817390719F42FEF3FEF44
S1130DE010C08D919C911197E80FF91F20818D916E
S1130DF09C91119701968F73907011969C938E938A
S1130E0030E0C9010895FC0186859785DC01A05C6A
S1130E10BF4FFC01EE5BFF4F2D913C9111978081F8
S1130E20918128173907C1F70895CF93DF93EC0117
S1130E30EE85FF85E05CFF4F20813181E054F04076
S1130E402F5F3F4F2F733070DF01AE5BBF4F8D912B
S1130E509C91119728173907D1F3E05CFF4F8081EB
S1130E609181E054F040E80FF91F6083EE85FF851F
S1130E70E05CFF4F31832083EE89FF89208181E08C
S1130E8090E00D8C02C0880F991F0A94E2F7282B7A
S1130E90208381E090E0DF91CF9108951092D201F8
S1130EA01092D10188EE93E0A0E0B0E08093D301EA
S1130EB09093D401A093D501B093D6018DE291E033
S1130EC09093D0018093CF0187E491E09093DC016B
S1130ED08093DB018BE891E09093DE018093DD0148
S1130EE085EC90E09093E0018093DF0184EC90E046
S1130EF09093E2018093E10180EC90E09093E4010F
S1130F008093E30181EC90E09093E6018093E50106
S1130F1086EC90E09093E8018093E70184E080936D
S1130F20E90183E08093EA0187E08093EB0185E0A7
S1130F308093EC0181E08093ED010895CF92DF92DC
S1130F40EF92FF920F931F93CF93DF937C016B017A
S1130F508A01C0E0D0E00FC0D6016D916D01D701C8
S1130F60ED91FC910190F081E02DC7010995C80F26
S1130F70D91F015010400115110571F7CE01DF9101
S1130F80CF911F910F91FF90EF90DF90CF90089534
S1130F90EF92FF920F931F938C01DC01ED91FC9172
S1130FA00190F081E02D6DE009957C01D801ED916F
S1130FB0FC910190F081E02DC8016AE009959C0143
S1130FC02E0D3F1DC9011F910F91FF90EF900895C1
S1130FD0CF93DF93DB010D900020E9F71197A61B57
S1130FE0B70BEC01E881F9810280F381E02DAD01BA
S1130FF00995DF91CF910895EF92FF920F931F937C
S11310007C010E94E8078C01C7010E94C807080FF1
S1131010191FC8011F910F91FF90EF9008952F920F
S11310203F924F925F926F927F928F929F92AF9274
S1131030BF92CF92DF92EF92FF920F931F93DF93B1
S1131040CF93CDB7DEB73B014C0119012A016D895D
S11310507E898F89988D6A197B098C099D09621A8A
S1131060730A840A950AA40193010E945808E2189D
S1131070F30804091509A80197010E948A082A0D9A
S11310803B1D4C1D5D1DB901CA01CF91DF911F911C
S11310900F91FF90EF90DF90CF90BF90AF909F9013
S11310A08F907F906F905F904F903F902F90089516
S11310B0DB018F939F930E94AF08BF91AF91A29FD2
S11310C0800D911DA39F900DB29F900D1124089542
S11310D0A1E21A2EAA1BBB1BFD010DC0AA1FBB1F38
S11310E0EE1FFF1FA217B307E407F50720F0A21BAA
S11310F0B30BE40BF50B661F771F881F991F1A9417
S113110069F760957095809590959B01AC01BD0140
S1131110CF010895052E97FB1EF400940E94A108A8
S113112057FD07D00E94680807FC03D04EF40C94C6
S1131130A10850954095309521953F4F4F4F5F4FF3
S1131140089590958095709561957F4F8F4F9F4F2F
S11311500895EE0FFF1F0590F491E02D09940E946D
S1131160BA08A59F900DB49F900DA49F800D911D6A
S113117011240895A29FB001B39FC001A39F700DD5
S1131180811D1124911DB29F700D811D1124911D8B
S10911900895F894FFCF5E
S1131196D0070A000B0008000F000E00050004002B
S11311A6030002000150726F6772616D20496E6917
S11311B67469616C69736564000000000015079E1C
S10D11C607A906DA06BA06030700BB
S9030000FC
